:020000040000FA
:100000000C9462000C948A000C948A000C948A0070
:100010000C948A000C948A000C948A000C948A0038
:100020000C948A000C948A000C948A000C948A0028
:100030000C948A000C948A000C948A000C948A0018
:100040000C94F1010C948A000C94BF010C9499015A
:100050000C948A000C948A000C948A000C948A00F8
:100060000C948A000C948A0005A84CCDB2D44EB9E9
:100070003836A9020C50B9918688083CA6AAAA2A4B
:10008000BE000000803F00000000250028002B007B
:1000900000000000240027002A00040404040404D3
:1000A0000404020202020202030303030303010227
:1000B00004081020408001020408102001020408F6
:1000C0001020290311241FBECFEFD8E0DEBFCDBF23
:1000D00011E0A0E0B1E0EEEEFBE002C005900D9271
:1000E000A231B107D9F723E0A2E1B1E001C01D922E
:1000F000A834B207E1F710E0C2E6D0E004C02197CF
:10010000FE010E94EF05C136D107C9F70E943B02EC
:100110000C94F5050C940000AF92BF92CF92DF9241
:10012000EF92FF920F931F93CF93DF936C017B01AC
:100130008B01040F151FEB015E01AE18BF08C0173D
:10014000D10759F06991D601ED91FC910190F081B0
:10015000E02DC6010995892B79F7C501DF91CF9173
:100160001F910F91FF90EF90DF90CF90BF90AF90D5
:100170000895FC01538D448D252F30E0842F90E0AD
:10018000821B930B541710F0CF9608950197089592
:10019000FC01918D828D981761F0A28DAE0FBF2F5B
:1001A000B11D5D968C91928D9F5F9F73928F90E0B1
:1001B00008958FEF9FEF0895FC01918D828D981720
:1001C00031F0828DE80FF11D858D90E008958FEF5D
:1001D0009FEF0895FC01918D228D892F90E0805C26
:1001E0009F4F821B91098F73992708958BE191E0AE
:1001F0000E94EA0021E0892B09F420E0822F089573
:1002000080E090E0892B29F00E94F60081110C9487
:1002100000000895FC01A48DA80FB92FB11DA35AA9
:10022000BF4F2C91848D90E001968F739927848F16
:10023000A689B7892C93A089B1898C918370806439
:100240008C93938D848D981306C00288F389E02DDA
:1002500080818F7D80830895EF92FF920F931F938B
:10026000CF93DF93EC0181E0888F9B8D8C8D981369
:100270001AC0E889F989808185FF15C09FB7F89475
:10028000EE89FF896083E889F989808183708064C1
:1002900080839FBF81E090E0DF91CF911F910F910C
:1002A000FF90EF900895F62E0B8D10E00F5F1F4F1B
:1002B0000F731127E02E8C8D8E110CC00FB607FC2A
:1002C000FACFE889F989808185FFF5CFCE010E94B8
:1002D0000A01F1CFEB8DEC0FFD2FF11DE35AFF4F1B
:1002E000F0829FB7F8940B8FEA89FB898081806246
:1002F000CFCFCF93DF93EC01888D8823B9F0AA8903
:10030000BB89E889F9898C9185FD03C0808186FDD0
:100310000DC00FB607FCF7CF8C9185FFF2CF80811F
:1003200085FFEDCFCE010E940A01E9CFDF91CF9189
:1003300008951F920F920FB60F9211242F933F939F
:100340004F935F936F937F938F939F93AF93BF93DD
:10035000EF93FF938BE191E00E940A01FF91EF91EF
:10036000BF91AF919F918F917F916F915F914F91CD
:100370003F912F910F900FBE0F901F9018951F92D5
:100380000F920FB60F9211242F938F939F93EF9399
:10039000FF93E0912B01F0912C018081E0913101DC
:1003A000F091320182FD1BC09081809134018F5FFA
:1003B0008F7320913501821741F0E0913401F0E014
:1003C000E55EFE4F958F80933401FF91EF919F91F1
:1003D0008F912F910F900FBE0F901F9018958081D5
:1003E000F4CF1F920F920FB60F9211242F933F93C9
:1003F0008F939F93AF93BF938091170190911801B2
:10040000A0911901B0911A013091160123E0230F38
:100410002D3758F50196A11DB11D2093160180932B
:10042000170190931801A0931901B0931A018091BC
:10043000120190911301A0911401B0911501019640
:10044000A11DB11D8093120190931301A09314017B
:10045000B0931501BF91AF919F918F913F912F91D3
:100460000F900FBE0F901F90189526E8230F02964D
:10047000A11DB11DD2CF789484B5826084BD84B5AE
:10048000816084BD85B5826085BD85B5816085BD8F
:1004900080916E00816080936E0010928100809147
:1004A00081008260809381008091810081608093CF
:1004B0008100809180008160809380008091B100F4
:1004C00084608093B1008091B00081608093B0001F
:1004D00080917A00846080937A0080917A008260B3
:1004E00080937A0080917A00816080937A00809175
:1004F0007A00806880937A001092C100E0912B010D
:10050000F0912C0182E08083E0912701F091280195
:100510001082E0912901F0912A018FEC80831092E2
:100520003301E0912F01F091300186E08083E0916A
:100530002D01F0912E01808180618083E0912D0159
:10054000F0912E01808188608083E0912D01F091EF
:100550002E01808180688083E0912D01F0912E0131
:1005600080818F7D80838AB18C6F8AB9ECEBF0E05B
:100570002491E8EAF0E084918823C1F090E0880FAC
:10058000991FFC01E057FF4FC591D491FC01EA5738
:10059000FF4FA591B4919FB7F8948881E22FE09521
:1005A0008E2388838C91E823EC939FBF08EB11E0A6
:1005B000D0E0C0E0BE010D2E000C880B990B0E940C
:1005C00066042BED3FE049EC50E40E94F20420E089
:1005D00030E048EC53E40E94C3030E945F0520E032
:1005E00030E040E85FE30E94570320E030E04CE752
:1005F00052E40E94F20420E030E040E05FE30E9419
:10060000F2040E943504F80161938F012196C039EC
:10061000F1E0DF0779F6C8E4D3E00BE91FE080E002
:10062000E82E80E0F82EE8EBF1E08191880F880F4A
:100630008BB9C8010197F1F7CE17DF07B1F7E114C5
:10064000F10489F30E94F600882369F30E940000F8
:10065000EACFEBE1F1E01382128288EE93E0A0E0B2
:10066000B0E084839583A683B78384E091E091838F
:10067000808385EC90E09587848784EC90E0978771
:10068000868780EC90E0918B808B81EC90E0938B5F
:10069000828B82EC90E0958B848B86EC90E0978B3C
:1006A000868B118E128E138E148E08955058BB2790
:1006B000AA270E946E030C94B8040E94AA0438F082
:1006C0000E94B10420F039F49F3F19F426F40C94F1
:1006D000A7040EF4E095E7FB0C94A104E92F0E9417
:1006E000C90458F3BA17620773078407950720F007
:1006F00079F4A6F50C94EB040EF4E0950B2EBA2FCA
:10070000A02D0B01B90190010C01CA01A001112417
:10071000FF27591B99F0593F50F4503E68F11A16C3
:10072000F040A22F232F342F4427585FF3CF469554
:1007300037952795A795F0405395C9F77EF41F1676
:10074000BA0B620B730B840BBAF09150A1F0FF0F40
:10075000BB1F661F771F881FC2F70EC0BA0F621F2C
:10076000731F841F48F4879577956795B795F7951C
:100770009E3F08F0B0CF9395880F08F09927EE0FB1
:100780009795879508950E94D7030C94B8040E940A
:10079000B10458F00E94AA0440F029F45F3F29F008
:1007A0000C94A10451110C94EC040C94A7040E9425
:1007B000C90468F39923B1F3552391F3951B550BA5
:1007C000BB27AA2762177307840738F09F5F5F4F24
:1007D000220F331F441FAA1FA9F335D00E2E3AF063
:1007E000E0E832D091505040E695001CCAF72BD07B
:1007F000FE2F29D0660F771F881FBB1F26173707CC
:100800004807AB07B0E809F0BB0B802DBF01FF27FD
:1008100093585F4F3AF09E3F510578F00C94A10435
:100820000C94EC045F3FE4F3983ED4F386957795FF
:100830006795B795F7959F5FC9F7880F911D9695B6
:10084000879597F90895E1E0660F771F881FBB1F12
:10085000621773078407BA0720F0621B730B840BBF
:10086000BA0BEE1F88F7E09508950E94D10488F036
:100870009F5798F0B92F9927B751B0F0E1F0660F64
:10088000771F881F991F1AF0BA95C9F714C0B130A5
:1008900091F00E94EB04B1E008950C94EB04672FF3
:1008A000782F8827B85F39F0B93FCCF386957795D4
:1008B0006795B395D9F73EF49095809570956195BD
:1008C0007F4F8F4F9F4F0895E89409C097FB3EF4E8
:1008D00090958095709561957F4F8F4F9F4F99238D
:1008E000A9F0F92F96E9BB279395F695879577950B
:1008F0006795B795F111F8CFFAF4BB0F11F460FFCB
:100900001BC06F5F7F4F8F4F9F4F16C0882311F022
:1009100096E911C0772321F09EE8872F762F05C036
:10092000662371F096E8862F70E060E02AF09A95D1
:10093000660F771F881FDAF7880F9695879597F9C6
:10094000089597F99F6780E870E060E008959FEF51
:1009500080EC089500240A94161617061806090656
:10096000089500240A941216130614060506089525
:10097000092E0394000C11F4882352F0BB0F40F4AD
:10098000BF2B11F460FF04C06F5F7F4F8F4F9F4FED
:10099000089557FD9058440F551F59F05F3F71F06F
:1009A0004795880F97FB991F61F09F3F79F08795D6
:1009B0000895121613061406551FF2CF4695F1DF5F
:1009C00008C0161617061806991FF1CF86957105EF
:1009D000610508940895E894BB2766277727CB0123
:1009E00097F908950E9405050C94B8040E94AA0482
:1009F00038F00E94B10420F0952311F00C94A1046A
:100A00000C94A70411240C94EC040E94C90470F304
:100A1000959FC1F3950F50E0551F629FF001729FA3
:100A2000BB27F00DB11D639FAA27F00DB11DAA1FB2
:100A3000649F6627B00DA11D661F829F2227B00DFF
:100A4000A11D621F739FB00DA11D621F839FA00D8A
:100A5000611D221F749F3327A00D611D231F849FDA
:100A6000600D211D822F762F6A2F11249F57504031
:100A70009AF0F1F088234AF0EE0FFF1FBB1F661FAC
:100A8000771F881F91505040A9F79E3F510580F075
:100A90000C94A1040C94EC045F3FE4F3983ED4F36F
:100AA000869577956795B795F795E7959F5FC1F719
:100AB000FE2B880F911D9695879597F908959F9322
:100AC0000E9469050F9007FCEE5F0C9492050C9450
:100AD000A7040E94D104D8F3E894E0E0BB279F5715
:100AE000F0F02AED3FE049EC06C0EE0FBB0F661FA9
:100AF000771F881F28F0B23A62077307840728F02F
:100B0000B25A620B730B840BE3959A9572F7803897
:100B100030F49A95BB0F661F771F881FD2F7904855
:100B20000C94A805EF93E0FF07C0A2EA2AED3FE08E
:100B300049EC5FEB0E946E030E94B8040F9003948F
:100B400001FC9058E8E6F0E00C94B4059F3F31F0CA
:100B5000915020F4879577956795B795880F911DEB
:100B60009695879597F908959F938F937F936F93A9
:100B7000FF93EF939B01AC010E94F204EF91FF9170
:100B80000E94C8052F913F914F915F910C94F20400
:100B9000DF93CF931F930F93FF92EF92DF927B012E
:100BA0008C01689406C0DA2EEF010E940505FE0153
:100BB000E894A5912591359145915591A6F3EF01C2
:100BC0000E946E03FE019701A801DA9469F7DF9095
:100BD000EF90FF900F911F91CF91DF910895EE0F4D
:100BE000FF1F0590F491E02D0994F894FFCF0000C9
:100BF00000002C018C00B9007901EA00C800DC007B
:107E0000112484B714BE81FFF0D085E080938100F7
:107E100082E08093C00088E18093C10086E0809377
:107E2000C20080E18093C4008EE0C9D0259A86E02C
:107E300020E33CEF91E0309385002093840096BBD3
:107E4000B09BFECF1D9AA8958150A9F7CC24DD24C4
:107E500088248394B5E0AB2EA1E19A2EF3E0BF2EE7
:107E6000A2D0813461F49FD0082FAFD0023811F036
:107E7000013811F484E001C083E08DD089C08234E0
:107E800011F484E103C0853419F485E0A6D080C0E4
:107E9000853579F488D0E82EFF2485D0082F10E0AE
:107EA000102F00270E291F29000F111F8ED06801E7
:107EB0006FC0863521F484E090D080E0DECF843638
:107EC00009F040C070D06FD0082F6DD080E0C81688
:107ED00080E7D80618F4F601B7BEE895C0E0D1E017
:107EE00062D089930C17E1F7F0E0CF16F0E7DF06D8
:107EF00018F0F601B7BEE89568D007B600FCFDCFD4
:107F0000A601A0E0B1E02C9130E011968C91119780
:107F100090E0982F8827822B932B1296FA010C0160
:107F200087BEE89511244E5F5F4FF1E0A038BF0790
:107F300051F7F601A7BEE89507B600FCFDCF97BE46
:107F4000E89526C08437B1F42ED02DD0F82E2BD052
:107F50003CD0F601EF2C8F010F5F1F4F84911BD097
:107F6000EA94F801C1F70894C11CD11CFA94CF0C13
:107F7000D11C0EC0853739F428D08EE10CD085E9AC
:107F80000AD08FE07ACF813511F488E018D01DD067
:107F900080E101D065CF982F8091C00085FFFCCF94
:107FA0009093C60008958091C00087FFFCCF809118
:107FB000C00084FD01C0A8958091C6000895E0E648
:107FC000F0E098E1908380830895EDDF803219F02E
:107FD00088E0F5DFFFCF84E1DECF1F93182FE3DFCA
:107FE0001150E9F7F2DF1F91089580E0E8DFEE27F6
:047FF000FF270994CA
:027FFE00040479
:00000001FF
